{
  "contractName": "TasksContract",
  "abi": [
    {
      "inputs": [],
      "stateMutability": "nonpayable",
      "type": "constructor"
    },
    {
      "anonymous": false,
      "inputs": [
        {
          "indexed": false,
          "internalType": "uint256",
          "name": "id",
          "type": "uint256"
        },
        {
          "indexed": false,
          "internalType": "bool",
          "name": "done",
          "type": "bool"
        }
      ],
      "name": "TaskCompleted",
      "type": "event"
    },
    {
      "anonymous": false,
      "inputs": [
        {
          "indexed": false,
          "internalType": "uint256",
          "name": "id",
          "type": "uint256"
        },
        {
          "indexed": false,
          "internalType": "string",
          "name": "title",
          "type": "string"
        },
        {
          "indexed": false,
          "internalType": "bool",
          "name": "done",
          "type": "bool"
        },
        {
          "indexed": false,
          "internalType": "string",
          "name": "description",
          "type": "string"
        }
      ],
      "name": "TaskCreated",
      "type": "event"
    },
    {
      "inputs": [],
      "name": "taskCount",
      "outputs": [
        {
          "internalType": "uint256",
          "name": "",
          "type": "uint256"
        }
      ],
      "stateMutability": "view",
      "type": "function",
      "constant": true
    },
    {
      "inputs": [
        {
          "internalType": "uint256",
          "name": "id",
          "type": "uint256"
        }
      ],
      "name": "tasks",
      "outputs": [
        {
          "internalType": "uint256",
          "name": "id",
          "type": "uint256"
        },
        {
          "internalType": "string",
          "name": "title",
          "type": "string"
        },
        {
          "internalType": "bool",
          "name": "done",
          "type": "bool"
        },
        {
          "internalType": "string",
          "name": "description",
          "type": "string"
        },
        {
          "internalType": "uint256",
          "name": "createdAt",
          "type": "uint256"
        },
        {
          "internalType": "uint256",
          "name": "updatedAt",
          "type": "uint256"
        }
      ],
      "stateMutability": "view",
      "type": "function",
      "constant": true
    },
    {
      "inputs": [
        {
          "internalType": "string",
          "name": "_title",
          "type": "string"
        },
        {
          "internalType": "string",
          "name": "_description",
          "type": "string"
        }
      ],
      "name": "createTask",
      "outputs": [],
      "stateMutability": "nonpayable",
      "type": "function"
    },
    {
      "inputs": [
        {
          "internalType": "uint256",
          "name": "_id",
          "type": "uint256"
        }
      ],
      "name": "toggleCompleted",
      "outputs": [],
      "stateMutability": "nonpayable",
      "type": "function"
    },
    {
      "inputs": [
        {
          "internalType": "uint256",
          "name": "_id",
          "type": "uint256"
        }
      ],
      "name": "getTask",
      "outputs": [
        {
          "components": [
            {
              "internalType": "uint256",
              "name": "id",
              "type": "uint256"
            },
            {
              "internalType": "string",
              "name": "title",
              "type": "string"
            },
            {
              "internalType": "bool",
              "name": "done",
              "type": "bool"
            },
            {
              "internalType": "string",
              "name": "description",
              "type": "string"
            },
            {
              "internalType": "uint256",
              "name": "createdAt",
              "type": "uint256"
            },
            {
              "internalType": "uint256",
              "name": "updatedAt",
              "type": "uint256"
            }
          ],
          "internalType": "struct TasksContract.Task",
          "name": "",
          "type": "tuple"
        }
      ],
      "stateMutability": "view",
      "type": "function",
      "constant": true
    },
    {
      "inputs": [
        {
          "internalType": "uint256",
          "name": "_id",
          "type": "uint256"
        }
      ],
      "name": "deleteTask",
      "outputs": [],
      "stateMutability": "nonpayable",
      "type": "function"
    },
    {
      "inputs": [],
      "name": "getTasks",
      "outputs": [
        {
          "components": [
            {
              "internalType": "uint256",
              "name": "id",
              "type": "uint256"
            },
            {
              "internalType": "string",
              "name": "title",
              "type": "string"
            },
            {
              "internalType": "bool",
              "name": "done",
              "type": "bool"
            },
            {
              "internalType": "string",
              "name": "description",
              "type": "string"
            },
            {
              "internalType": "uint256",
              "name": "createdAt",
              "type": "uint256"
            },
            {
              "internalType": "uint256",
              "name": "updatedAt",
              "type": "uint256"
            }
          ],
          "internalType": "struct TasksContract.Task[]",
          "name": "",
          "type": "tuple[]"
        }
      ],
      "stateMutability": "view",
      "type": "function",
      "constant": true
    }
  ],
  "bytecode": "0x6080604052600080553480156200001557600080fd5b50620000926040518060400160405280600d81526020017f4d79206669727374207461736b000000000000000000000000000000000000008152506040518060400160405280601581526020017f54686973206973206d79206669727374207461736b00000000000000000000008152506200009860201b60201c565b620006a3565b600080815480929190620000ac90620001e7565b91905055506040518060c001604052806000548152602001838152602001600015158152602001828152602001428152602001428152506001600080548152602001908152602001600020600082015181600001556020820151816001019081620001189190620004a4565b5060408201518160020160006101000a81548160ff0219169083151502179055506060820151816003019081620001509190620004a4565b506080820151816004015560a082015181600501559050507f8e81f8d5e6292a32213e5078b457b4f4d2f7717afb1fd146eccb6d1ee8ca16a560005483600084604051620001a2949392919062000648565b60405180910390a15050565b7f4e487b7100000000000000000000000000000000000000000000000000000000600052601160045260246000fd5b6000819050919050565b6000620001f482620001dd565b91507fffffffffffffffffffffffffffffffffffffffffffffffffffffffffffffffff8203620002295762000228620001ae565b5b600182019050919050565b600081519050919050565b7f4e487b7100000000000000000000000000000000000000000000000000000000600052604160045260246000fd5b7f4e487b7100000000000000000000000000000000000000000000000000000000600052602260045260246000fd5b60006002820490506001821680620002b657607f821691505b602082108103620002cc57620002cb6200026e565b5b50919050565b60008190508160005260206000209050919050565b60006020601f8301049050919050565b600082821b905092915050565b600060088302620003367fffffffffffffffffffffffffffffffffffffffffffffffffffffffffffffffff82620002f7565b620003428683620002f7565b95508019841693508086168417925050509392505050565b6000819050919050565b6000620003856200037f6200037984620001dd565b6200035a565b620001dd565b9050919050565b6000819050919050565b620003a18362000364565b620003b9620003b0826200038c565b84845462000304565b825550505050565b600090565b620003d0620003c1565b620003dd81848462000396565b505050565b5b818110156200040557620003f9600082620003c6565b600181019050620003e3565b5050565b601f82111562000454576200041e81620002d2565b6200042984620002e7565b8101602085101562000439578190505b620004516200044885620002e7565b830182620003e2565b50505b505050565b600082821c905092915050565b6000620004796000198460080262000459565b1980831691505092915050565b600062000494838362000466565b9150826002028217905092915050565b620004af8262000234565b67ffffffffffffffff811115620004cb57620004ca6200023f565b5b620004d782546200029d565b620004e482828562000409565b600060209050601f8311600181146200051c576000841562000507578287015190505b62000513858262000486565b86555062000583565b601f1984166200052c86620002d2565b60005b8281101562000556578489015182556001820191506020850194506020810190506200052f565b8683101562000576578489015162000572601f89168262000466565b8355505b6001600288020188555050505b505050505050565b6200059681620001dd565b82525050565b600082825260208201905092915050565b60005b83811015620005cd578082015181840152602081019050620005b0565b60008484015250505050565b6000601f19601f8301169050919050565b6000620005f78262000234565b6200060381856200059c565b935062000615818560208601620005ad565b6200062081620005d9565b840191505092915050565b60008115159050919050565b62000642816200062b565b82525050565b60006080820190506200065f60008301876200058b565b8181036020830152620006738186620005ea565b905062000684604083018562000637565b8181036060830152620006988184620005ea565b905095945050505050565b61156a80620006b36000396000f3fe608060405234801561001057600080fd5b506004361061007d5760003560e01c8063455f50241161005b578063455f5024146100ec578063560f3192146101085780638d97767214610124578063b6cb58a5146101595761007d565b806304a87e38146100825780631d65e77e146100a0578063292a4585146100d0575b600080fd5b61008a610177565b6040516100979190610d20565b60405180910390f35b6100ba60048036038101906100b59190610d82565b6103a2565b6040516100c79190610e3f565b60405180910390f35b6100ea60048036038101906100e59190610f96565b610532565b005b61010660048036038101906101019190610d82565b610640565b005b610122600480360381019061011d9190610d82565b6108b1565b005b61013e60048036038101906101399190610d82565b610916565b60405161015096959493929190611076565b60405180910390f35b610161610a6f565b60405161016e91906110e5565b60405180910390f35b60606000805467ffffffffffffffff81111561019657610195610e6b565b5b6040519080825280602002602001820160405280156101cf57816020015b6101bc610a75565b8152602001906001900390816101b45790505b5090506000600190505b600054811161039a57600160008281526020019081526020016000206040518060c00160405290816000820154815260200160018201805461021a9061112f565b80601f01602080910402602001604051908101604052809291908181526020018280546102469061112f565b80156102935780601f1061026857610100808354040283529160200191610293565b820191906000526020600020905b81548152906001019060200180831161027657829003601f168201915b505050505081526020016002820160009054906101000a900460ff161515151581526020016003820180546102c79061112f565b80601f01602080910402602001604051908101604052809291908181526020018280546102f39061112f565b80156103405780601f1061031557610100808354040283529160200191610340565b820191906000526020600020905b81548152906001019060200180831161032357829003601f168201915b50505050508152602001600482015481526020016005820154815250508260018361036b919061118f565b8151811061037c5761037b6111c3565b5b60200260200101819052508080610392906111f2565b9150506101d9565b508091505090565b6103aa610a75565b6000600160008481526020019081526020016000206040518060c0016040529081600082015481526020016001820180546103e49061112f565b80601f01602080910402602001604051908101604052809291908181526020018280546104109061112f565b801561045d5780601f106104325761010080835404028352916020019161045d565b820191906000526020600020905b81548152906001019060200180831161044057829003601f168201915b505050505081526020016002820160009054906101000a900460ff161515151581526020016003820180546104919061112f565b80601f01602080910402602001604051908101604052809291908181526020018280546104bd9061112f565b801561050a5780601f106104df5761010080835404028352916020019161050a565b820191906000526020600020905b8154815290600101906020018083116104ed57829003601f168201915b5050505050815260200160048201548152602001600582015481525050905080915050919050565b600080815480929190610544906111f2565b91905055506040518060c0016040528060005481526020018381526020016000151581526020018281526020014281526020014281525060016000805481526020019081526020016000206000820151816000015560208201518160010190816105ae91906113e6565b5060408201518160020160006101000a81548160ff02191690831515021790555060608201518160030190816105e491906113e6565b506080820151816004015560a082015181600501559050507f8e81f8d5e6292a32213e5078b457b4f4d2f7717afb1fd146eccb6d1ee8ca16a56000548360008460405161063494939291906114b8565b60405180910390a15050565b6000600160008381526020019081526020016000206040518060c00160405290816000820154815260200160018201805461067a9061112f565b80601f01602080910402602001604051908101604052809291908181526020018280546106a69061112f565b80156106f35780601f106106c8576101008083540402835291602001916106f3565b820191906000526020600020905b8154815290600101906020018083116106d657829003601f168201915b505050505081526020016002820160009054906101000a900460ff161515151581526020016003820180546107279061112f565b80601f01602080910402602001604051908101604052809291908181526020018280546107539061112f565b80156107a05780601f10610775576101008083540402835291602001916107a0565b820191906000526020600020905b81548152906001019060200180831161078357829003601f168201915b50505050508152602001600482015481526020016005820154815250509050806040015115816040019015159081151581525050806001600084815260200190815260200160002060008201518160000155602082015181600101908161080791906113e6565b5060408201518160020160006101000a81548160ff021916908315150217905550606082015181600301908161083d91906113e6565b506080820151816004015560a082015181600501559050504260016000848152602001908152602001600020600501819055507fe21fa966ca5cd02748c0752352d18c48165e61cb55b4c29cccf924b5a95fcff18282604001516040516108a592919061150b565b60405180910390a15050565b600160008281526020019081526020016000206000808201600090556001820160006108dd9190610aad565b6002820160006101000a81549060ff02191690556003820160006109019190610aad565b60048201600090556005820160009055505050565b600160205280600052604060002060009150905080600001549080600101805461093f9061112f565b80601f016020809104026020016040519081016040528092919081815260200182805461096b9061112f565b80156109b85780601f1061098d576101008083540402835291602001916109b8565b820191906000526020600020905b81548152906001019060200180831161099b57829003601f168201915b5050505050908060020160009054906101000a900460ff16908060030180546109e09061112f565b80601f0160208091040260200160405190810160405280929190818152602001828054610a0c9061112f565b8015610a595780601f10610a2e57610100808354040283529160200191610a59565b820191906000526020600020905b815481529060010190602001808311610a3c57829003601f168201915b5050505050908060040154908060050154905086565b60005481565b6040518060c0016040528060008152602001606081526020016000151581526020016060815260200160008152602001600081525090565b508054610ab99061112f565b6000825580601f10610acb5750610aea565b601f016020900490600052602060002090810190610ae99190610aed565b5b50565b5b80821115610b06576000816000905550600101610aee565b5090565b600081519050919050565b600082825260208201905092915050565b6000819050602082019050919050565b6000819050919050565b610b4981610b36565b82525050565b600081519050919050565b600082825260208201905092915050565b60005b83811015610b89578082015181840152602081019050610b6e565b60008484015250505050565b6000601f19601f8301169050919050565b6000610bb182610b4f565b610bbb8185610b5a565b9350610bcb818560208601610b6b565b610bd481610b95565b840191505092915050565b60008115159050919050565b610bf481610bdf565b82525050565b600060c083016000830151610c126000860182610b40565b5060208301518482036020860152610c2a8282610ba6565b9150506040830151610c3f6040860182610beb565b5060608301518482036060860152610c578282610ba6565b9150506080830151610c6c6080860182610b40565b5060a0830151610c7f60a0860182610b40565b508091505092915050565b6000610c968383610bfa565b905092915050565b6000602082019050919050565b6000610cb682610b0a565b610cc08185610b15565b935083602082028501610cd285610b26565b8060005b85811015610d0e5784840389528151610cef8582610c8a565b9450610cfa83610c9e565b925060208a01995050600181019050610cd6565b50829750879550505050505092915050565b60006020820190508181036000830152610d3a8184610cab565b905092915050565b6000604051905090565b600080fd5b600080fd5b610d5f81610b36565b8114610d6a57600080fd5b50565b600081359050610d7c81610d56565b92915050565b600060208284031215610d9857610d97610d4c565b5b6000610da684828501610d6d565b91505092915050565b600060c083016000830151610dc76000860182610b40565b5060208301518482036020860152610ddf8282610ba6565b9150506040830151610df46040860182610beb565b5060608301518482036060860152610e0c8282610ba6565b9150506080830151610e216080860182610b40565b5060a0830151610e3460a0860182610b40565b508091505092915050565b60006020820190508181036000830152610e598184610daf565b905092915050565b600080fd5b600080fd5b7f4e487b7100000000000000000000000000000000000000000000000000000000600052604160045260246000fd5b610ea382610b95565b810181811067ffffffffffffffff82111715610ec257610ec1610e6b565b5b80604052505050565b6000610ed5610d42565b9050610ee18282610e9a565b919050565b600067ffffffffffffffff821115610f0157610f00610e6b565b5b610f0a82610b95565b9050602081019050919050565b82818337600083830152505050565b6000610f39610f3484610ee6565b610ecb565b905082815260208101848484011115610f5557610f54610e66565b5b610f60848285610f17565b509392505050565b600082601f830112610f7d57610f7c610e61565b5b8135610f8d848260208601610f26565b91505092915050565b60008060408385031215610fad57610fac610d4c565b5b600083013567ffffffffffffffff811115610fcb57610fca610d51565b5b610fd785828601610f68565b925050602083013567ffffffffffffffff811115610ff857610ff7610d51565b5b61100485828601610f68565b9150509250929050565b61101781610b36565b82525050565b600082825260208201905092915050565b600061103982610b4f565b611043818561101d565b9350611053818560208601610b6b565b61105c81610b95565b840191505092915050565b61107081610bdf565b82525050565b600060c08201905061108b600083018961100e565b818103602083015261109d818861102e565b90506110ac6040830187611067565b81810360608301526110be818661102e565b90506110cd608083018561100e565b6110da60a083018461100e565b979650505050505050565b60006020820190506110fa600083018461100e565b92915050565b7f4e487b7100000000000000000000000000000000000000000000000000000000600052602260045260246000fd5b6000600282049050600182168061114757607f821691505b60208210810361115a57611159611100565b5b50919050565b7f4e487b7100000000000000000000000000000000000000000000000000000000600052601160045260246000fd5b600061119a82610b36565b91506111a583610b36565b92508282039050818111156111bd576111bc611160565b5b92915050565b7f4e487b7100000000000000000000000000000000000000000000000000000000600052603260045260246000fd5b60006111fd82610b36565b91507fffffffffffffffffffffffffffffffffffffffffffffffffffffffffffffffff820361122f5761122e611160565b5b600182019050919050565b60008190508160005260206000209050919050565b60006020601f8301049050919050565b600082821b905092915050565b60006008830261129c7fffffffffffffffffffffffffffffffffffffffffffffffffffffffffffffffff8261125f565b6112a6868361125f565b95508019841693508086168417925050509392505050565b6000819050919050565b60006112e36112de6112d984610b36565b6112be565b610b36565b9050919050565b6000819050919050565b6112fd836112c8565b611311611309826112ea565b84845461126c565b825550505050565b600090565b611326611319565b6113318184846112f4565b505050565b5b818110156113555761134a60008261131e565b600181019050611337565b5050565b601f82111561139a5761136b8161123a565b6113748461124f565b81016020851015611383578190505b61139761138f8561124f565b830182611336565b50505b505050565b600082821c905092915050565b60006113bd6000198460080261139f565b1980831691505092915050565b60006113d683836113ac565b9150826002028217905092915050565b6113ef82610b4f565b67ffffffffffffffff81111561140857611407610e6b565b5b611412825461112f565b61141d828285611359565b600060209050601f831160018114611450576000841561143e578287015190505b61144885826113ca565b8655506114b0565b601f19841661145e8661123a565b60005b8281101561148657848901518255600182019150602085019450602081019050611461565b868310156114a3578489015161149f601f8916826113ac565b8355505b6001600288020188555050505b505050505050565b60006080820190506114cd600083018761100e565b81810360208301526114df818661102e565b90506114ee6040830185611067565b8181036060830152611500818461102e565b905095945050505050565b6000604082019050611520600083018561100e565b61152d6020830184611067565b939250505056fea264697066735822122028226d2e945e21936411f00afceb12e8f1adf08eb020f2b9780889b692aa6a1364736f6c63430008130033",
  "immutableReferences": {},
  "source": "// SPDX-License-Identifier: MIT\npragma solidity ^0.8.19;\n\ncontract TasksContract {\n    constructor() {\n        createTask(\"My first task\", \"This is my first task\");\n    }\n\n    uint public taskCount = 0;\n\n    struct Task {\n        uint256 id;\n        string title;\n        bool done;\n        string description;\n        uint256 createdAt;\n        uint256 updatedAt;\n    }\n\n    mapping(uint256 id => Task) public tasks;\n\n    event TaskCreated(uint id, string title, bool done, string description);\n    event TaskCompleted(uint id, bool done);\n\n    function createTask(string memory _title, string memory _description) public {\n        taskCount++;\n        tasks[taskCount] = Task(taskCount, _title, false, _description, block.timestamp, block.timestamp);\n        emit TaskCreated(taskCount, _title, false, _description);\n    }\n\n    function toggleCompleted(uint _id) public {\n        Task memory _task = tasks[_id];\n        _task.done = !_task.done;\n        tasks[_id] = _task;\n        tasks[_id].updatedAt = block.timestamp;\n        emit TaskCompleted(_id, _task.done);\n\n    }\n\n    function getTask(uint _id) public view returns (Task memory) {\n        Task memory _task = tasks[_id];\n        return _task;\n    }\n\n    function deleteTask(uint _id) public {\n        delete tasks[_id];\n    }\n\n    function getTasks() public view returns (Task[] memory) {\n        Task[] memory _tasks = new Task[](taskCount);\n        for (uint i = 1; i <= taskCount; i++) {\n            _tasks[i - 1] = tasks[i];\n        }\n        return _tasks;\n    }\n}",
  "sourcePath": "/Users/angelozdev/personal/dapp/contracts/contracts/TasksContract.sol",
  "compiler": {
    "name": "solc",
    "version": "0.8.19+commit.7dd6d404.Emscripten.clang"
  },
  "schemaVersion": "3.4.16",
  "updatedAt": "2024-03-27T18:53:28.527Z",
  "networkType": "ethereum",
  "devdoc": {
    "kind": "dev",
    "methods": {},
    "version": 1
  },
  "userdoc": {
    "kind": "user",
    "methods": {},
    "version": 1
  }
}